:1000000019C033C032C031C030C02FC02EC02DC087
:100010002CC02BC02AC029C028C027C026C025C09C
:10002000ADC023C022C021C020C01FC01EC01DC043
:100030001CC01BC011241FBECFEFD4E0DEBFCDBF5C
:1000400011E0A0E0B1E0ECE8F4E002C005900D9210
:10005000A031B107D9F721E0A0E1B1E001C01D92C4
:10006000A231B207E1F7CAD00FC2CACF4F925F9256
:100070006F927F928F929F92AF92BF92CF92DF92B8
:10008000EF92FF92CF93DF9300D000D0CDB7DEB7D1
:10009000209105013091060140910701509108011E
:1000A00069837A838B839C8369817A818B819C812C
:1000B000BDD02B013C01C301B2019DD14B015C01BC
:1000C000C501B4011BD170930401609303010F902B
:1000D0000F900F900F90DF91CF91FF90EF90DF90F6
:1000E000CF90BF90AF909F908F907F906F905F90D8
:1000F0004F9008954F925F926F927F928F929F924E
:10010000AF92BF92CF92DF92EF92FF92CF93DF93A5
:1001100000D000D0CDB7DEB72091090130910A019F
:1001200040910B0150910C0169837A838B839C83EE
:1001300069817A818B819C8179D02B013C01C3013B
:10014000B20159D14B015C01C501B401D7D0709304
:100150001101609310010F900F900F900F90DF919D
:10016000CF91FF90EF90DF90CF90BF90AF909F9096
:100170008F907F906F905F904F9008958F938FB77F
:100180008F939F938091100190911101892B81F0A1
:1001900080910201883051F581E0809302018091C5
:1001A000100190911101019790931101809310011A
:1001B0008091030190910401892B81F080910101CC
:1001C0008830C1F481E08093010180910301909116
:1001D0000401019790930401809303018091000131
:1001E00086BD9F918F918FBF8F911895809102014D
:1001F000880FD3CF80910101880FE5CF8FEF87B9AA
:100200008AB960E070E084EB92E474DF80910001D1
:1002100086BD85E085BD81E080936E0078948091F5
:10022000020188B9809101018BB9F9CF0CD0A9C026
:10023000A1D040F098D030F021F45F3F19F08AC08F
:100240005111D3C08DC0AED098F39923C9F3552373
:10025000B1F3951B550BBB27AA27621773078407B9
:1002600038F09F5F5F4F220F331F441FAA1FA9F36F
:1002700033D00E2E3AF0E0E830D091505040E69561
:10028000001CCAF729D0FE2F27D0660F771F881FC2
:10029000BB1F261737074807AB07B0E809F0BB0BB1
:1002A000802DBF01FF2793585F4F2AF09E3F5105D5
:1002B00068F050C09AC05F3FECF3983EDCF386953F
:1002C00077956795B795F7959F5FC9F7880F911D4B
:1002D0009695879597F90895E1E0660F771F881F37
:1002E000BB1F621773078407BA0720F0621B730BEA
:1002F000840BBA0BEE1F88F7E09508955BD088F069
:100300009F5790F0B92F9927B751A0F0D1F0660F01
:10031000771F881F991F1AF0BA95C9F712C0B1301C
:1003200081F062D0B1E008955FC0672F782F8827F1
:10033000B85F39F0B93FCCF3869577956795B3955B
:10034000D9F73EF490958095709561957F4F8F4FCA
:100350009F4F089597F99F6780E870E060E00895E7
:100360009FEF80EC089500240A94161617061806CD
:100370000906089500240A941216130614060506A9
:100380000895092E0394000C11F4882352F0BB0F3A
:1003900040F4BF2B11F460FF04C06F5F7F4F8F4F9D
:1003A0009F4F089557FD9058440F551F59F05F3FD8
:1003B00071F04795880F97FB991F61F09F3F79F087
:1003C00087950895121613061406551FF2CF469509
:1003D000F1DF08C0161617061806991FF1CF86958B
:1003E0007105610508940895E894BB27662777276F
:1003F000CB0197F90895DEDFE0F09E37D8F096390B
:10040000B8F49E3848F4672F782F8827985FF9CF83
:1004100086957795679593959539D0F3B62FB170FA
:100420006B0F711D811D20F48795779567959395C6
:1004300002C01CC0DACF882371F4772321F09850D2
:10044000872B762F07C0662311F499270DC0905192
:10045000862B70E060E02AF09A95660F771F881F60
:10046000DAF7880F9695879597F908959F3F31F0B1
:10047000915020F4879577956795B795880F911DD2
:0C0480009695879597F90895F894FFCFA2
:10048C00E601010008D2537B3CEFFF333E051133EC
:00000001FF
