:1000000019C033C032C031C030C02FC02EC02DC087
:100010002CC02BC02AC029C028C027C026C025C09C
:10002000B3C023C022C021C020C01FC01EC01DC03D
:100030001CC01BC011241FBECFEFD4E0DEBFCDBF5C
:1000400011E0A0E0B1E0E2E6F5E002C005900D921B
:10005000AA30B107D9F721E0AAE0B1E001C01D92B2
:10006000AE30B207E1F7DAD07AC2CACF4F925F92D0
:100070006F927F928F929F92AF92BF92CF92DF92B8
:10008000EF92FF920F931F93CF93DF93CDB7DEB71D
:100090002A970FB6F894DEBF0FBECDBF6A87798767
:1000A000182F092F6091000170E080E090E068D186
:1000B0002BED3FE049EC50E469837A838B839C838A
:1000C00069817A818B819C81E7D12B013C01A3015D
:1000D000920160910301709104018091050190915A
:1000E0000601B8D08A849984A12EB02EA50194016E
:1000F0006B017C01C701B601CFD16D837E838F83F5
:1001000098876D817E818F8198850CD160930A01DB
:100110002A960FB6F894DEBF0FBECDBFDF91CF9108
:100120001F910F91FF90EF90DF90CF90BF90AF9015
:100130009F908F907F906F905F904F9008958F92D7
:100140009F92AF92BF92CF92DF92EF92FF92209157
:1001500003013091040140910501509106014B01CA
:100160005C01C501B40176D06B017C01C701B60109
:10017000D9D060930D01FF90EF90DF90CF90BF90AA
:10018000AF909F908F9008951F921FB61F921124D9
:100190008F939F9380910D01811589F080910C01BF
:1001A000813069F410920C0190910201983071F540
:1001B0008093020180910D01815080930D01809107
:1001C0000A01811589F080910B01813069F4109248
:1001D0000B01909101019830E9F480930101809125
:1001E0000A01815080930A0180910C018F5F8093F6
:1001F0000C0180910B018F5F80930B018DEF86BD09
:100200009F918F911F901FBE1F90189580910201A2
:10021000880FCECF80910101880FDFCF8FEF87B994
:100220008AB960E078EC8FEA97E420DF60E078EC50
:100230008FEA97E484DF8DEF86BD85E085BD81E0A0
:1002400080936E0078948091020188B980910101B9
:100250008BB9F9CF0CD0E6C0DED040F0D5D030F06D
:1002600021F45F3F19F0C7C0511110C1CAC0EBD0D3
:1002700098F39923C9F35523B1F3951B550BBB276D
:10028000AA2762177307840738F09F5F5F4F220F1A
:10029000331F441FAA1FA9F333D00E2E3AF0E0E813
:1002A00030D091505040E695001CCAF729D0FE2F5F
:1002B00027D0660F771F881FBB1F261737074807F1
:1002C000AB07B0E809F0BB0B802DBF01FF279358A7
:1002D0005F4F2AF09E3F510568F08DC0D7C05F3F49
:1002E000ECF3983EDCF3869577956795B795F7958F
:1002F0009F5FC9F7880F911D9695879597F9089587
:10030000E1E0660F771F881FBB1F62177307840722
:10031000BA0720F0621B730B840BBA0BEE1F88F731
:10032000E095089598D088F09F5790F0B92F9927BD
:10033000B751A0F0D1F0660F771F881F991F1AF0F0
:10034000BA95C9F712C0B13081F09FD0B1E00895DD
:100350009CC0672F782F8827B85F39F0B93FCCF35E
:10036000869577956795B395D9F73EF490958095E6
:10037000709561957F4F8F4F9F4F0895E89409C006
:1003800097FB3EF490958095709561957F4F8F4FC8
:100390009F4F9923A9F0F92F96E9BB279395F695DE
:1003A000879577956795B795F111F8CFFAF4BB0F5C
:1003B00011F460FF1BC06F5F7F4F8F4F9F4F16C0C0
:1003C000882311F096E911C0772321F09EE8872F4A
:1003D000762F05C0662371F096E8862F70E060E006
:1003E0002AF09A95660F771F881FDAF7880F96957F
:1003F000879597F9089597F99F6780E870E060E026
:1004000008959FEF80EC089500240A9416161706AD
:1004100018060906089500240A94121613061406F5
:1004200005060895092E0394000C11F4882352F058
:10043000BB0F40F4BF2B11F460FF04C06F5F7F4F10
:100440008F4F9F4F089557FD9058440F551F59F0F7
:100450005F3F71F04795880F97FB991F61F09F3FB1
:1004600079F087950895121613061406551FF2CFDA
:100470004695F1DF08C0161617061806991FF1CF2A
:1004800086957105610508940895E894BB27662751
:100490007727CB0197F908950BD0C4CFB5DF28F0AB
:1004A000BADF18F0952309F0A6CFABCF1124EECF19
:1004B000CADFA0F3959FD1F3950F50E0551F629FBF
:1004C000F001729FBB27F00DB11D639FAA27F00DAD
:1004D000B11DAA1F649F6627B00DA11D661F829FD4
:1004E0002227B00DA11D621F739FB00DA11D621FB9
:1004F000839FA00D611D221F749F3327A00D611DD6
:10050000231F849F600D211D822F762F6A2F1124B7
:100510009F5750408AF0E1F088234AF0EE0FFF1F0A
:10052000BB1F661F771F881F91505040A9F79E3F41
:10053000510570F060CFAACF5F3FECF3983EDCF33B
:10054000869577956795B795F795E7959F5FC1F77E
:10055000FE2B880F911D9695879597F90895F8942D
:02056000FFCFCB
:0A0562000501010000B44011330050
:00000001FF
