:1000000019C033C032C031C030C02FC02EC02DC087
:100010002CC02BC02AC029C028C027C026C025C09C
:10002000ABC023C022C021C020C01FC01EC01DC045
:100030001CC01BC011241FBECFEFD4E0DEBFCDBF5C
:1000400011E0A0E0B1E0EAEEF5E002C005900D920B
:10005000A830B107D9F721E0A8E0B1E001C01D92B6
:10006000A031B207E1F7DCD0BEC2CACFFB0181E00C
:10007000808382E0808384E0808388E080830895A9
:10008000CF92DF92EF92FF92682F70E090E080E0D5
:10009000B9D16B017C016091000170E090E080E0DB
:1000A000B3D120910201309103014091040150919C
:1000B000050136D29B01AC01C701B6010FD176D143
:1000C0009B01AC0160E472E48FE090E0E2D06093C9
:1000D00008017093090180930A0190930B01FF902E
:1000E000EF90DF90CF9008958F929F92AF92BF9242
:1000F000CF92DF92EF92FF926B017C01609106013B
:1001000070E090E080E07ED14B015C0160910701DE
:1001100070E090E080E078D19B01AC01C501B401B2
:10012000DDD04B015C016091010170E090E080E066
:100130006BD19B01AC01C501B401F2D19B01AC01B3
:10014000C701B601CBD032D19B01AC0160E472E4AF
:100150008FE090E09ED060930C0170930D0180932E
:100160000E0190930F01FF90EF90DF90CF90BF9022
:10017000AF909F908F9008951F920F920FB60F929D
:1001800011248F939F93AF93BF9388E386BD809193
:10019000080190910901A0910A01B0910B01892BEE
:1001A0008A2B8B2BA1F08091080190910901A091DD
:1001B0000A01B0910B01885C9109A109B1098093F2
:1001C000080190930901A0930A01B0930B0180915B
:1001D0000C0190910D01A0910E01B0910F01892B9E
:1001E0008A2B8B2BA1F080910C0190910D01A09195
:1001F0000E01B0910F01885C9109A109B1098093AA
:100200000C0190930D01A0930E01B0930F01BF91CB
:10021000AF919F918F910F900FBE0F901F901895E7
:100220008FEF84B987B984E12BDF60E070E080E272
:1002300091E45ADF88E386BD82E085BD81E080934A
:100240006E0078948091080190910901A0910A01B3
:10025000B0910B01892B8A2B8B2BB9F065E270E0F2
:1002600083E090E003DF80910C0190910D01A0915B
:100270000E01B0910F01892B8A2B8B2B41F068E284
:1002800070E083E090E0F2DEDDCF15B8ECCF18B877
:10029000D9CFDB018F939F930BD0BF91AF91A29FDA
:1002A000800D911DA39F900DB29F900D1124089574
:1002B00009D0A59F900DB49F900DA49F800D911D16
:1002C00011240895A29FB001B39FC001A39F01D044
:1002D000B29F700D811D1124911D08950CD0E6C0B0
:1002E000DED040F0D5D030F021F45F3F19F0C7C028
:1002F000511110C1CAC0EBD098F39923C9F355230B
:10030000B1F3951B550BBB27AA2762177307840708
:1003100038F09F5F5F4F220F331F441FAA1FA9F3BE
:1003200033D00E2E3AF0E0E830D091505040E695B0
:10033000001CCAF729D0FE2F27D0660F771F881F11
:10034000BB1F261737074807AB07B0E809F0BB0B00
:10035000802DBF01FF2793585F4F2AF09E3F510524
:1003600068F08DC0D7C05F3FECF3983EDCF3869514
:1003700077956795B795F7959F5FC9F7880F911D9A
:100380009695879597F90895E1E0660F771F881F86
:10039000BB1F621773078407BA0720F0621B730B39
:1003A000840BBA0BEE1F88F7E095089598D088F07B
:1003B0009F5790F0B92F9927B751A0F0D1F0660F51
:1003C000771F881F991F1AF0BA95C9F712C0B1306C
:1003D00081F09FD0B1E008959CC0672F782F8827C7
:1003E000B85F39F0B93FCCF3869577956795B395AB
:1003F000D9F73EF490958095709561957F4F8F4F1A
:100400009F4F0895E89409C097FB3EF4909580951E
:10041000709561957F4F8F4F9F4F9923A9F0F92FCA
:1004200096E9BB279395F695879577956795B79548
:10043000F111F8CFFAF4BB0F11F460FF1BC06F5F2E
:100440007F4F8F4F9F4F16C0882311F096E911C040
:10045000772321F09EE8872F762F05C0662371F061
:1004600096E8862F70E060E02AF09A95660F771F75
:10047000881FDAF7880F9695879597F9089597F969
:100480009F6780E870E060E008959FEF80EC08953A
:1004900000240A9416161706180609060895002463
:1004A0000A9412161306140605060895092E0394DD
:1004B000000C11F4882352F0BB0F40F4BF2B11F451
:1004C00060FF04C06F5F7F4F8F4F9F4F089557FDB0
:1004D0009058440F551F59F05F3F71F04795880FB2
:1004E00097FB991F61F09F3F79F087950895121649
:1004F00013061406551FF2CF4695F1DF08C01616F5
:1005000017061806991FF1CF8695710561050894A5
:100510000895E894BB2766277727CB0197F90895BC
:100520000BD0C4CFB5DF28F0BADF18F0952309F05F
:10053000A6CFABCF1124EECFCADFA0F3959FD1F3A6
:10054000950F50E0551F629FF001729FBB27F00D81
:10055000B11D639FAA27F00DB11DAA1F649F6627D6
:10056000B00DA11D661F829F2227B00DA11D621F25
:10057000739FB00DA11D621F839FA00D611D221FDF
:10058000749F3327A00D611D231F849F600D211DC3
:10059000822F762F6A2F11249F5750408AF0E1F066
:1005A00088234AF0EE0FFF1FBB1F661F771F881FAF
:1005B00091505040A9F79E3F510570F060CFAACFEF
:1005C0005F3FECF3983EDCF3869577956795B7959A
:1005D000F795E7959F5FC1F7FE2B880F911D9695C4
:0A05E000879597F90895F894FFCF6E
:0805EA00050FF3665F3F1133BA
:00000001FF
