:1000000019C02BC02AC029C028C027C026C025C0BF
:1000100024C023C022C021C020C01FC01EC01DC0DC
:100020001CC01BC01AC019C018C017C016C015C00C
:1000300014C013C011241FBECFEFD4E0DEBFCDBF6C
:1000400011E0A0E0B1E0EEE8F0E002C005900D9212
:10005000A230B107D9F702D018C0D2CF8FEF87B93D
:1000600021E02093000184E09091000198B99091E3
:100070000001990F90930001E7EEF3E03197F1F75B
:0E00800000C000008A9581F7ECCFF894FFCF06
:02008E0001006F
:00000001FF
