:1000000019C033C032C031C030C02FC02EC02DC087
:100010002CC02BC02AC029C028C027C026C025C09C
:1000200025C023C022C021C020C01FC01EC01DC0CB
:100030001CC01BC011241FBECFEFD4E0DEBFCDBF5C
:1000400011E0A0E0B1E0E0EDF0E002C005900D921B
:10005000A230B107D9F721E0A2E0B1E001C01D92C2
:10006000A330B207E1F723D031C0CACF1F921FB629
:100070001F9211248F9380910101811561F080916D
:100080000001883081F481E08093000180910101BA
:100090008150809301018091020186BD8F911F9054
:1000A0001FBE1F90189580910001880FEDCF8FEF34
:1000B0008AB98091020186BD83E085BD81E080938D
:1000C0006E007894809100018BB9FCCFF894FFCF3B
:0200D000015CD1
:00000001FF
